{
  "address": "0x5FbDB2315678afecb367f032d93F642f64180aa3",
  "abi": [
    {
      "inputs": [],
      "stateMutability": "nonpayable",
      "type": "constructor"
    },
    {
      "anonymous": false,
      "inputs": [
        {
          "indexed": false,
          "internalType": "uint256",
          "name": "catId",
          "type": "uint256"
        },
        {
          "indexed": false,
          "internalType": "address",
          "name": "newOwner",
          "type": "address"
        },
        {
          "indexed": false,
          "internalType": "address",
          "name": "prevOwner",
          "type": "address"
        }
      ],
      "name": "Adoption",
      "type": "event"
    },
    {
      "anonymous": false,
      "inputs": [
        {
          "indexed": false,
          "internalType": "uint256",
          "name": "catId",
          "type": "uint256"
        },
        {
          "indexed": false,
          "internalType": "address",
          "name": "currentOwner",
          "type": "address"
        }
      ],
      "name": "AdoptionOffer",
      "type": "event"
    },
    {
      "anonymous": false,
      "inputs": [
        {
          "indexed": true,
          "internalType": "address",
          "name": "owner",
          "type": "address"
        },
        {
          "indexed": true,
          "internalType": "address",
          "name": "approved",
          "type": "address"
        },
        {
          "indexed": true,
          "internalType": "uint256",
          "name": "tokenId",
          "type": "uint256"
        }
      ],
      "name": "Approval",
      "type": "event"
    },
    {
      "anonymous": false,
      "inputs": [
        {
          "indexed": true,
          "internalType": "address",
          "name": "owner",
          "type": "address"
        },
        {
          "indexed": true,
          "internalType": "address",
          "name": "operator",
          "type": "address"
        },
        {
          "indexed": false,
          "internalType": "bool",
          "name": "approved",
          "type": "bool"
        }
      ],
      "name": "ApprovalForAll",
      "type": "event"
    },
    {
      "anonymous": false,
      "inputs": [
        {
          "indexed": false,
          "internalType": "uint256",
          "name": "catId",
          "type": "uint256"
        },
        {
          "indexed": false,
          "internalType": "address",
          "name": "poster",
          "type": "address"
        }
      ],
      "name": "NewCat",
      "type": "event"
    },
    {
      "anonymous": false,
      "inputs": [
        {
          "indexed": false,
          "internalType": "uint256",
          "name": "catId",
          "type": "uint256"
        },
        {
          "indexed": false,
          "internalType": "address",
          "name": "petter",
          "type": "address"
        },
        {
          "indexed": false,
          "internalType": "uint256",
          "name": "amount",
          "type": "uint256"
        }
      ],
      "name": "Pet",
      "type": "event"
    },
    {
      "anonymous": false,
      "inputs": [
        {
          "indexed": false,
          "internalType": "uint256",
          "name": "catId",
          "type": "uint256"
        },
        {
          "indexed": false,
          "internalType": "address",
          "name": "collecter",
          "type": "address"
        },
        {
          "indexed": false,
          "internalType": "uint256",
          "name": "amount",
          "type": "uint256"
        }
      ],
      "name": "PetCollection",
      "type": "event"
    },
    {
      "anonymous": false,
      "inputs": [
        {
          "indexed": true,
          "internalType": "address",
          "name": "from",
          "type": "address"
        },
        {
          "indexed": true,
          "internalType": "address",
          "name": "to",
          "type": "address"
        },
        {
          "indexed": true,
          "internalType": "uint256",
          "name": "tokenId",
          "type": "uint256"
        }
      ],
      "name": "Transfer",
      "type": "event"
    },
    {
      "inputs": [
        {
          "internalType": "uint256",
          "name": "catId",
          "type": "uint256"
        }
      ],
      "name": "accumulatedPets",
      "outputs": [
        {
          "internalType": "uint256",
          "name": "",
          "type": "uint256"
        }
      ],
      "stateMutability": "view",
      "type": "function"
    },
    {
      "inputs": [
        {
          "internalType": "uint256",
          "name": "catId",
          "type": "uint256"
        }
      ],
      "name": "adoptCat",
      "outputs": [],
      "stateMutability": "nonpayable",
      "type": "function"
    },
    {
      "inputs": [
        {
          "internalType": "address",
          "name": "to",
          "type": "address"
        },
        {
          "internalType": "uint256",
          "name": "tokenId",
          "type": "uint256"
        }
      ],
      "name": "approve",
      "outputs": [],
      "stateMutability": "nonpayable",
      "type": "function"
    },
    {
      "inputs": [
        {
          "internalType": "address",
          "name": "owner",
          "type": "address"
        }
      ],
      "name": "balanceOf",
      "outputs": [
        {
          "internalType": "uint256",
          "name": "",
          "type": "uint256"
        }
      ],
      "stateMutability": "view",
      "type": "function"
    },
    {
      "inputs": [
        {
          "internalType": "uint256",
          "name": "catId",
          "type": "uint256"
        }
      ],
      "name": "collect",
      "outputs": [],
      "stateMutability": "nonpayable",
      "type": "function"
    },
    {
      "inputs": [
        {
          "internalType": "uint256",
          "name": "tokenId",
          "type": "uint256"
        }
      ],
      "name": "getApproved",
      "outputs": [
        {
          "internalType": "address",
          "name": "",
          "type": "address"
        }
      ],
      "stateMutability": "view",
      "type": "function"
    },
    {
      "inputs": [
        {
          "internalType": "uint256",
          "name": "catId",
          "type": "uint256"
        }
      ],
      "name": "giveInAdoption",
      "outputs": [],
      "stateMutability": "nonpayable",
      "type": "function"
    },
    {
      "inputs": [
        {
          "internalType": "uint256",
          "name": "catId",
          "type": "uint256"
        }
      ],
      "name": "isAdopted",
      "outputs": [
        {
          "internalType": "bool",
          "name": "",
          "type": "bool"
        }
      ],
      "stateMutability": "view",
      "type": "function"
    },
    {
      "inputs": [
        {
          "internalType": "address",
          "name": "owner",
          "type": "address"
        },
        {
          "internalType": "address",
          "name": "operator",
          "type": "address"
        }
      ],
      "name": "isApprovedForAll",
      "outputs": [
        {
          "internalType": "bool",
          "name": "",
          "type": "bool"
        }
      ],
      "stateMutability": "view",
      "type": "function"
    },
    {
      "inputs": [],
      "name": "name",
      "outputs": [
        {
          "internalType": "string",
          "name": "",
          "type": "string"
        }
      ],
      "stateMutability": "view",
      "type": "function"
    },
    {
      "inputs": [
        {
          "internalType": "uint256",
          "name": "tokenId",
          "type": "uint256"
        }
      ],
      "name": "ownerOf",
      "outputs": [
        {
          "internalType": "address",
          "name": "",
          "type": "address"
        }
      ],
      "stateMutability": "view",
      "type": "function"
    },
    {
      "inputs": [
        {
          "internalType": "uint256",
          "name": "catId",
          "type": "uint256"
        }
      ],
      "name": "petCat",
      "outputs": [],
      "stateMutability": "payable",
      "type": "function"
    },
    {
      "inputs": [
        {
          "internalType": "string",
          "name": "tokenURI",
          "type": "string"
        },
        {
          "internalType": "bool",
          "name": "forAdoption",
          "type": "bool"
        }
      ],
      "name": "postCat",
      "outputs": [
        {
          "internalType": "uint256",
          "name": "",
          "type": "uint256"
        }
      ],
      "stateMutability": "nonpayable",
      "type": "function"
    },
    {
      "inputs": [
        {
          "internalType": "address",
          "name": "from",
          "type": "address"
        },
        {
          "internalType": "address",
          "name": "to",
          "type": "address"
        },
        {
          "internalType": "uint256",
          "name": "tokenId",
          "type": "uint256"
        }
      ],
      "name": "safeTransferFrom",
      "outputs": [],
      "stateMutability": "nonpayable",
      "type": "function"
    },
    {
      "inputs": [
        {
          "internalType": "address",
          "name": "from",
          "type": "address"
        },
        {
          "internalType": "address",
          "name": "to",
          "type": "address"
        },
        {
          "internalType": "uint256",
          "name": "tokenId",
          "type": "uint256"
        },
        {
          "internalType": "bytes",
          "name": "data",
          "type": "bytes"
        }
      ],
      "name": "safeTransferFrom",
      "outputs": [],
      "stateMutability": "nonpayable",
      "type": "function"
    },
    {
      "inputs": [
        {
          "internalType": "address",
          "name": "operator",
          "type": "address"
        },
        {
          "internalType": "bool",
          "name": "approved",
          "type": "bool"
        }
      ],
      "name": "setApprovalForAll",
      "outputs": [],
      "stateMutability": "nonpayable",
      "type": "function"
    },
    {
      "inputs": [
        {
          "internalType": "bytes4",
          "name": "interfaceId",
          "type": "bytes4"
        }
      ],
      "name": "supportsInterface",
      "outputs": [
        {
          "internalType": "bool",
          "name": "",
          "type": "bool"
        }
      ],
      "stateMutability": "view",
      "type": "function"
    },
    {
      "inputs": [],
      "name": "symbol",
      "outputs": [
        {
          "internalType": "string",
          "name": "",
          "type": "string"
        }
      ],
      "stateMutability": "view",
      "type": "function"
    },
    {
      "inputs": [
        {
          "internalType": "uint256",
          "name": "tokenId",
          "type": "uint256"
        }
      ],
      "name": "tokenURI",
      "outputs": [
        {
          "internalType": "string",
          "name": "",
          "type": "string"
        }
      ],
      "stateMutability": "view",
      "type": "function"
    },
    {
      "inputs": [
        {
          "internalType": "address",
          "name": "from",
          "type": "address"
        },
        {
          "internalType": "address",
          "name": "to",
          "type": "address"
        },
        {
          "internalType": "uint256",
          "name": "tokenId",
          "type": "uint256"
        }
      ],
      "name": "transferFrom",
      "outputs": [],
      "stateMutability": "nonpayable",
      "type": "function"
    }
  ],
  "transactionHash": "0x3ba8b593e2b0e9f146c21c26123ee976e940242f6a237ff205c3864a1b9a5299",
  "args": [],
  "numDeployments": 1,
  "solcInputHash": "aaa5166b0c37d47f9303e60661fb316d",
  "bytecode": "0x60806040523480156200001157600080fd5b506040518060400160405280600381526020017f4e465400000000000000000000000000000000000000000000000000000000008152506040518060400160405280600381526020017f49544d000000000000000000000000000000000000000000000000000000000081525081600090816200008f919062000324565b508060019081620000a1919062000324565b5050506200040b565b600081519050919050565b7f4e487b7100000000000000000000000000000000000000000000000000000000600052604160045260246000fd5b7f4e487b7100000000000000000000000000000000000000000000000000000000600052602260045260246000fd5b600060028204905060018216806200012c57607f821691505b602082108103620001425762000141620000e4565b5b50919050565b60008190508160005260206000209050919050565b60006020601f8301049050919050565b600082821b905092915050565b600060088302620001ac7fffffffffffffffffffffffffffffffffffffffffffffffffffffffffffffffff826200016d565b620001b886836200016d565b95508019841693508086168417925050509392505050565b6000819050919050565b6000819050919050565b600062000205620001ff620001f984620001d0565b620001da565b620001d0565b9050919050565b6000819050919050565b6200022183620001e4565b6200023962000230826200020c565b8484546200017a565b825550505050565b600090565b6200025062000241565b6200025d81848462000216565b505050565b5b8181101562000285576200027960008262000246565b60018101905062000263565b5050565b601f821115620002d4576200029e8162000148565b620002a9846200015d565b81016020851015620002b9578190505b620002d1620002c8856200015d565b83018262000262565b50505b505050565b600082821c905092915050565b6000620002f960001984600802620002d9565b1980831691505092915050565b6000620003148383620002e6565b9150826002028217905092915050565b6200032f82620000aa565b67ffffffffffffffff8111156200034b576200034a620000b5565b5b62000357825462000113565b6200036482828562000289565b600060209050601f8311600181146200039c576000841562000387578287015190505b62000393858262000306565b86555062000403565b601f198416620003ac8662000148565b60005b82811015620003d657848901518255600182019150602085019450602081019050620003af565b86831015620003f65784890151620003f2601f891682620002e6565b8355505b6001600288020188555050505b505050505050565b6133da806200041b6000396000f3fe60806040526004361061011f5760003560e01c806370a08231116100a0578063b3d2eeed11610064578063b3d2eeed1461041b578063b88d4fde14610437578063c87b56dd14610460578063ce3f865f1461049d578063e985e9c5146104c65761011f565b806370a08231146103105780637541475f1461034d5780637625ec301461038a57806395d89b41146103c7578063a22cb465146103f25761011f565b806323b872dd116100e757806323b872dd1461021b57806335b7b397146102445780633edd45a31461026d57806342842e0e146102aa5780636352211e146102d35761011f565b806301ffc9a71461012457806306fdde0314610161578063081812fc1461018c578063095ea7b3146101c957806317d93c33146101f2575b600080fd5b34801561013057600080fd5b5061014b60048036038101906101469190611e3a565b610503565b6040516101589190611e82565b60405180910390f35b34801561016d57600080fd5b506101766105e5565b6040516101839190611f2d565b60405180910390f35b34801561019857600080fd5b506101b360048036038101906101ae9190611f85565b610677565b6040516101c09190611ff3565b60405180910390f35b3480156101d557600080fd5b506101f060048036038101906101eb919061203a565b6106bd565b005b3480156101fe57600080fd5b5061021960048036038101906102149190611f85565b6107d4565b005b34801561022757600080fd5b50610242600480360381019061023d919061207a565b6108fa565b005b34801561025057600080fd5b5061026b60048036038101906102669190611f85565b610968565b005b34801561027957600080fd5b50610294600480360381019061028f9190611f85565b610a0a565b6040516102a191906120dc565b60405180910390f35b3480156102b657600080fd5b506102d160048036038101906102cc919061207a565b610a27565b005b3480156102df57600080fd5b506102fa60048036038101906102f59190611f85565b610a47565b6040516103079190611ff3565b60405180910390f35b34801561031c57600080fd5b50610337600480360381019061033291906120f7565b610af8565b60405161034491906120dc565b60405180910390f35b34801561035957600080fd5b50610374600480360381019061036f9190611f85565b610baf565b6040516103819190611e82565b60405180910390f35b34801561039657600080fd5b506103b160048036038101906103ac9190612285565b610bd9565b6040516103be91906120dc565b60405180910390f35b3480156103d357600080fd5b506103dc610c75565b6040516103e99190611f2d565b60405180910390f35b3480156103fe57600080fd5b50610419600480360381019061041491906122e1565b610d07565b005b61043560048036038101906104309190611f85565b610d1d565b005b34801561044357600080fd5b5061045e600480360381019061045991906123c2565b610d91565b005b34801561046c57600080fd5b5061048760048036038101906104829190611f85565b610df3565b6040516104949190611f2d565b60405180910390f35b3480156104a957600080fd5b506104c460048036038101906104bf9190611f85565b610f05565b005b3480156104d257600080fd5b506104ed60048036038101906104e89190612445565b611098565b6040516104fa9190611e82565b60405180910390f35b60007f80ac58cd000000000000000000000000000000000000000000000000000000007bffffffffffffffffffffffffffffffffffffffffffffffffffffffff1916827bffffffffffffffffffffffffffffffffffffffffffffffffffffffff191614806105ce57507f5b5e139f000000000000000000000000000000000000000000000000000000007bffffffffffffffffffffffffffffffffffffffffffffffffffffffff1916827bffffffffffffffffffffffffffffffffffffffffffffffffffffffff1916145b806105de57506105dd8261112c565b5b9050919050565b6060600080546105f4906124b4565b80601f0160208091040260200160405190810160405280929190818152602001828054610620906124b4565b801561066d5780601f106106425761010080835404028352916020019161066d565b820191906000526020600020905b81548152906001019060200180831161065057829003601f168201915b5050505050905090565b600061068282611196565b6004600083815260200190815260200160002060009054906101000a900473ffffffffffffffffffffffffffffffffffffffff169050919050565b60006106c882610a47565b90508073ffffffffffffffffffffffffffffffffffffffff168373ffffffffffffffffffffffffffffffffffffffff1603610738576040517f08c379a000000000000000000000000000000000000000000000000000000000815260040161072f90612557565b60405180910390fd5b8073ffffffffffffffffffffffffffffffffffffffff166107576111e1565b73ffffffffffffffffffffffffffffffffffffffff1614806107865750610785816107806111e1565b611098565b5b6107c5576040517f08c379a00000000000000000000000000000000000000000000000000000000081526004016107bc906125e9565b60405180910390fd5b6107cf83836111e9565b505050565b6107dd81610baf565b61081c576040517f08c379a00000000000000000000000000000000000000000000000000000000081526004016108139061267b565b60405180910390fd5b3373ffffffffffffffffffffffffffffffffffffffff1661083c82610a47565b73ffffffffffffffffffffffffffffffffffffffff1614610892576040517f08c379a0000000000000000000000000000000000000000000000000000000008152600401610889906126e7565b60405180910390fd5b60006008600083815260200190815260200160002060006101000a81548160ff0219169083151502179055507f6173625805cd416e32d87b254dd60056ec6490c5cad7a1cc6633809a977b208181336040516108ef929190612707565b60405180910390a150565b61090381610baf565b610958576109186109126111e1565b826112a2565b610957576040517f08c379a000000000000000000000000000000000000000000000000000000000815260040161094e906127a2565b60405180910390fd5b5b610963838383611337565b505050565b61097181610baf565b156109b1576040517f08c379a00000000000000000000000000000000000000000000000000000000081526004016109a89061280e565b60405180910390fd5b7f5f595cae383246bf6b8d438e5a2b3d4e80a0444e3bfc238a1664f16a0bacbdd781336109dd84610a47565b6040516109ec9392919061282e565b60405180910390a1610a07610a0082610a47565b33836108fa565b50565b600060096000838152602001908152602001600020549050919050565b610a4283838360405180602001604052806000815250610d91565b505050565b6000806002600084815260200190815260200160002060009054906101000a900473ffffffffffffffffffffffffffffffffffffffff169050600073ffffffffffffffffffffffffffffffffffffffff168173ffffffffffffffffffffffffffffffffffffffff1603610aef576040517f08c379a0000000000000000000000000000000000000000000000000000000008152600401610ae6906128b1565b60405180910390fd5b80915050919050565b60008073ffffffffffffffffffffffffffffffffffffffff168273ffffffffffffffffffffffffffffffffffffffff1603610b68576040517f08c379a0000000000000000000000000000000000000000000000000000000008152600401610b5f90612943565b60405180910390fd5b600360008373ffffffffffffffffffffffffffffffffffffffff1673ffffffffffffffffffffffffffffffffffffffff168152602001908152602001600020549050919050565b60006008600083815260200190815260200160002060009054906101000a900460ff169050919050565b600080610be6600761159d565b9050610bf233826115ab565b610bfc8185611784565b610c0660076117f1565b82156008600083815260200190815260200160002060006101000a81548160ff0219169083151502179055507fcda5d8b16147b108491c5e90d4db4ecd0216527877a79e7d5b048b7f58b58d878133604051610c63929190612707565b60405180910390a18091505092915050565b606060018054610c84906124b4565b80601f0160208091040260200160405190810160405280929190818152602001828054610cb0906124b4565b8015610cfd5780601f10610cd257610100808354040283529160200191610cfd565b820191906000526020600020905b815481529060010190602001808311610ce057829003601f168201915b5050505050905090565b610d19610d126111e1565b8383611807565b5050565b346009600083815260200190815260200160002054610d3c9190612992565b60096000838152602001908152602001600020819055507f440f3abb538646e62a96ce1cda8c9ea3ae4cfd6fad98cd33d1634b29fb92cc8b813334604051610d86939291906129c6565b60405180910390a150565b610da2610d9c6111e1565b836112a2565b610de1576040517f08c379a0000000000000000000000000000000000000000000000000000000008152600401610dd8906127a2565b60405180910390fd5b610ded84848484611973565b50505050565b6060610dfe82611196565b6000600660008481526020019081526020016000208054610e1e906124b4565b80601f0160208091040260200160405190810160405280929190818152602001828054610e4a906124b4565b8015610e975780601f10610e6c57610100808354040283529160200191610e97565b820191906000526020600020905b815481529060010190602001808311610e7a57829003601f168201915b505050505090506000610ea86119cf565b90506000815103610ebd578192505050610f00565b600082511115610ef2578082604051602001610eda929190612a39565b60405160208183030381529060405292505050610f00565b610efb846119e6565b925050505b919050565b3373ffffffffffffffffffffffffffffffffffffffff16610f2582610a47565b73ffffffffffffffffffffffffffffffffffffffff1614610f7b576040517f08c379a0000000000000000000000000000000000000000000000000000000008152600401610f7290612aa9565b60405180910390fd5b6000600960008381526020019081526020016000205490506000600960008481526020019081526020016000208190555060003373ffffffffffffffffffffffffffffffffffffffff1682604051610fd290612afa565b60006040518083038185875af1925050503d806000811461100f576040519150601f19603f3d011682016040523d82523d6000602084013e611014565b606091505b505090507f6879e5c322f159ad637ba254a5c6c773b33a4402df598f7671ded2c433d13ce683338460405161104b939291906129c6565b60405180910390a180611093576040517f08c379a000000000000000000000000000000000000000000000000000000000815260040161108a90612b5b565b60405180910390fd5b505050565b6000600560008473ffffffffffffffffffffffffffffffffffffffff1673ffffffffffffffffffffffffffffffffffffffff16815260200190815260200160002060008373ffffffffffffffffffffffffffffffffffffffff1673ffffffffffffffffffffffffffffffffffffffff16815260200190815260200160002060009054906101000a900460ff16905092915050565b60007f01ffc9a7000000000000000000000000000000000000000000000000000000007bffffffffffffffffffffffffffffffffffffffffffffffffffffffff1916827bffffffffffffffffffffffffffffffffffffffffffffffffffffffff1916149050919050565b61119f81611a4e565b6111de576040517f08c379a00000000000000000000000000000000000000000000000000000000081526004016111d5906128b1565b60405180910390fd5b50565b600033905090565b816004600083815260200190815260200160002060006101000a81548173ffffffffffffffffffffffffffffffffffffffff021916908373ffffffffffffffffffffffffffffffffffffffff160217905550808273ffffffffffffffffffffffffffffffffffffffff1661125c83610a47565b73ffffffffffffffffffffffffffffffffffffffff167f8c5be1e5ebec7d5bd14f71427d1e84f3dd0314c0f7b2291e5b200ac8c7c3b92560405160405180910390a45050565b6000806112ae83610a47565b90508073ffffffffffffffffffffffffffffffffffffffff168473ffffffffffffffffffffffffffffffffffffffff1614806112f057506112ef8185611098565b5b8061132e57508373ffffffffffffffffffffffffffffffffffffffff1661131684610677565b73ffffffffffffffffffffffffffffffffffffffff16145b91505092915050565b8273ffffffffffffffffffffffffffffffffffffffff1661135782610a47565b73ffffffffffffffffffffffffffffffffffffffff16146113ad576040517f08c379a00000000000000000000000000000000000000000000000000000000081526004016113a490612bed565b60405180910390fd5b600073ffffffffffffffffffffffffffffffffffffffff168273ffffffffffffffffffffffffffffffffffffffff160361141c576040517f08c379a000000000000000000000000000000000000000000000000000000000815260040161141390612c7f565b60405180910390fd5b611427838383611aba565b6114326000826111e9565b6001600360008573ffffffffffffffffffffffffffffffffffffffff1673ffffffffffffffffffffffffffffffffffffffff16815260200190815260200160002060008282546114829190612c9f565b925050819055506001600360008473ffffffffffffffffffffffffffffffffffffffff1673ffffffffffffffffffffffffffffffffffffffff16815260200190815260200160002060008282546114d99190612992565b92505081905550816002600083815260200190815260200160002060006101000a81548173ffffffffffffffffffffffffffffffffffffffff021916908373ffffffffffffffffffffffffffffffffffffffff160217905550808273ffffffffffffffffffffffffffffffffffffffff168473ffffffffffffffffffffffffffffffffffffffff167fddf252ad1be2c89b69c2b068fc378daa952ba7f163c4a11628f55a4df523b3ef60405160405180910390a4611598838383611abf565b505050565b600081600001549050919050565b600073ffffffffffffffffffffffffffffffffffffffff168273ffffffffffffffffffffffffffffffffffffffff160361161a576040517f08c379a000000000000000000000000000000000000000000000000000000000815260040161161190612d1f565b60405180910390fd5b61162381611a4e565b15611663576040517f08c379a000000000000000000000000000000000000000000000000000000000815260040161165a90612d8b565b60405180910390fd5b61166f60008383611aba565b6001600360008473ffffffffffffffffffffffffffffffffffffffff1673ffffffffffffffffffffffffffffffffffffffff16815260200190815260200160002060008282546116bf9190612992565b92505081905550816002600083815260200190815260200160002060006101000a81548173ffffffffffffffffffffffffffffffffffffffff021916908373ffffffffffffffffffffffffffffffffffffffff160217905550808273ffffffffffffffffffffffffffffffffffffffff16600073ffffffffffffffffffffffffffffffffffffffff167fddf252ad1be2c89b69c2b068fc378daa952ba7f163c4a11628f55a4df523b3ef60405160405180910390a461178060008383611abf565b5050565b61178d82611a4e565b6117cc576040517f08c379a00000000000000000000000000000000000000000000000000000000081526004016117c390612e1d565b60405180910390fd5b806006600084815260200190815260200160002090816117ec9190612fe9565b505050565b6001816000016000828254019250508190555050565b8173ffffffffffffffffffffffffffffffffffffffff168373ffffffffffffffffffffffffffffffffffffffff1603611875576040517f08c379a000000000000000000000000000000000000000000000000000000000815260040161186c90613107565b60405180910390fd5b80600560008573ffffffffffffffffffffffffffffffffffffffff1673ffffffffffffffffffffffffffffffffffffffff16815260200190815260200160002060008473ffffffffffffffffffffffffffffffffffffffff1673ffffffffffffffffffffffffffffffffffffffff16815260200190815260200160002060006101000a81548160ff0219169083151502179055508173ffffffffffffffffffffffffffffffffffffffff168373ffffffffffffffffffffffffffffffffffffffff167f17307eab39ab6107e8899845ad3d59bd9653f200f220920489ca2b5937696c31836040516119669190611e82565b60405180910390a3505050565b61197e848484611337565b61198a84848484611ac4565b6119c9576040517f08c379a00000000000000000000000000000000000000000000000000000000081526004016119c090613199565b60405180910390fd5b50505050565b606060405180602001604052806000815250905090565b60606119f182611196565b60006119fb6119cf565b90506000815111611a1b5760405180602001604052806000815250611a46565b80611a2584611c4b565b604051602001611a36929190612a39565b6040516020818303038152906040525b915050919050565b60008073ffffffffffffffffffffffffffffffffffffffff166002600084815260200190815260200160002060009054906101000a900473ffffffffffffffffffffffffffffffffffffffff1673ffffffffffffffffffffffffffffffffffffffff1614159050919050565b505050565b505050565b6000611ae58473ffffffffffffffffffffffffffffffffffffffff16611dab565b15611c3e578373ffffffffffffffffffffffffffffffffffffffff1663150b7a02611b0e6111e1565b8786866040518563ffffffff1660e01b8152600401611b30949392919061320e565b6020604051808303816000875af1925050508015611b6c57506040513d601f19601f82011682018060405250810190611b69919061326f565b60015b611bee573d8060008114611b9c576040519150601f19603f3d011682016040523d82523d6000602084013e611ba1565b606091505b506000815103611be6576040517f08c379a0000000000000000000000000000000000000000000000000000000008152600401611bdd90613199565b60405180910390fd5b805181602001fd5b63150b7a0260e01b7bffffffffffffffffffffffffffffffffffffffffffffffffffffffff1916817bffffffffffffffffffffffffffffffffffffffffffffffffffffffff191614915050611c43565b600190505b949350505050565b606060008203611c92576040518060400160405280600181526020017f30000000000000000000000000000000000000000000000000000000000000008152509050611da6565b600082905060005b60008214611cc4578080611cad9061329c565b915050600a82611cbd9190613313565b9150611c9a565b60008167ffffffffffffffff811115611ce057611cdf61212e565b5b6040519080825280601f01601f191660200182016040528015611d125781602001600182028036833780820191505090505b5090505b60008514611d9f57600182611d2b9190612c9f565b9150600a85611d3a9190613344565b6030611d469190612992565b60f81b818381518110611d5c57611d5b613375565b5b60200101907effffffffffffffffffffffffffffffffffffffffffffffffffffffffffffff1916908160001a905350600a85611d989190613313565b9450611d16565b8093505050505b919050565b6000808273ffffffffffffffffffffffffffffffffffffffff163b119050919050565b6000604051905090565b600080fd5b600080fd5b60007fffffffff0000000000000000000000000000000000000000000000000000000082169050919050565b611e1781611de2565b8114611e2257600080fd5b50565b600081359050611e3481611e0e565b92915050565b600060208284031215611e5057611e4f611dd8565b5b6000611e5e84828501611e25565b91505092915050565b60008115159050919050565b611e7c81611e67565b82525050565b6000602082019050611e976000830184611e73565b92915050565b600081519050919050565b600082825260208201905092915050565b60005b83811015611ed7578082015181840152602081019050611ebc565b60008484015250505050565b6000601f19601f8301169050919050565b6000611eff82611e9d565b611f098185611ea8565b9350611f19818560208601611eb9565b611f2281611ee3565b840191505092915050565b60006020820190508181036000830152611f478184611ef4565b905092915050565b6000819050919050565b611f6281611f4f565b8114611f6d57600080fd5b50565b600081359050611f7f81611f59565b92915050565b600060208284031215611f9b57611f9a611dd8565b5b6000611fa984828501611f70565b91505092915050565b600073ffffffffffffffffffffffffffffffffffffffff82169050919050565b6000611fdd82611fb2565b9050919050565b611fed81611fd2565b82525050565b60006020820190506120086000830184611fe4565b92915050565b61201781611fd2565b811461202257600080fd5b50565b6000813590506120348161200e565b92915050565b6000806040838503121561205157612050611dd8565b5b600061205f85828601612025565b925050602061207085828601611f70565b9150509250929050565b60008060006060848603121561209357612092611dd8565b5b60006120a186828701612025565b93505060206120b286828701612025565b92505060406120c386828701611f70565b9150509250925092565b6120d681611f4f565b82525050565b60006020820190506120f160008301846120cd565b92915050565b60006020828403121561210d5761210c611dd8565b5b600061211b84828501612025565b91505092915050565b600080fd5b600080fd5b7f4e487b7100000000000000000000000000000000000000000000000000000000600052604160045260246000fd5b61216682611ee3565b810181811067ffffffffffffffff821117156121855761218461212e565b5b80604052505050565b6000612198611dce565b90506121a4828261215d565b919050565b600067ffffffffffffffff8211156121c4576121c361212e565b5b6121cd82611ee3565b9050602081019050919050565b82818337600083830152505050565b60006121fc6121f7846121a9565b61218e565b90508281526020810184848401111561221857612217612129565b5b6122238482856121da565b509392505050565b600082601f8301126122405761223f612124565b5b81356122508482602086016121e9565b91505092915050565b61226281611e67565b811461226d57600080fd5b50565b60008135905061227f81612259565b92915050565b6000806040838503121561229c5761229b611dd8565b5b600083013567ffffffffffffffff8111156122ba576122b9611ddd565b5b6122c68582860161222b565b92505060206122d785828601612270565b9150509250929050565b600080604083850312156122f8576122f7611dd8565b5b600061230685828601612025565b925050602061231785828601612270565b9150509250929050565b600067ffffffffffffffff82111561233c5761233b61212e565b5b61234582611ee3565b9050602081019050919050565b600061236561236084612321565b61218e565b90508281526020810184848401111561238157612380612129565b5b61238c8482856121da565b509392505050565b600082601f8301126123a9576123a8612124565b5b81356123b9848260208601612352565b91505092915050565b600080600080608085870312156123dc576123db611dd8565b5b60006123ea87828801612025565b94505060206123fb87828801612025565b935050604061240c87828801611f70565b925050606085013567ffffffffffffffff81111561242d5761242c611ddd565b5b61243987828801612394565b91505092959194509250565b6000806040838503121561245c5761245b611dd8565b5b600061246a85828601612025565b925050602061247b85828601612025565b9150509250929050565b7f4e487b7100000000000000000000000000000000000000000000000000000000600052602260045260246000fd5b600060028204905060018216806124cc57607f821691505b6020821081036124df576124de612485565b5b50919050565b7f4552433732313a20617070726f76616c20746f2063757272656e74206f776e6560008201527f7200000000000000000000000000000000000000000000000000000000000000602082015250565b6000612541602183611ea8565b915061254c826124e5565b604082019050919050565b6000602082019050818103600083015261257081612534565b9050919050565b7f4552433732313a20617070726f76652063616c6c6572206973206e6f7420746f60008201527f6b656e206f776e6572206e6f7220617070726f76656420666f7220616c6c0000602082015250565b60006125d3603e83611ea8565b91506125de82612577565b604082019050919050565b60006020820190508181036000830152612602816125c6565b9050919050565b7f546869732063617420697320616c7265616479206c697374656420666f72206160008201527f646f7074696f6e00000000000000000000000000000000000000000000000000602082015250565b6000612665602783611ea8565b915061267082612609565b604082019050919050565b6000602082019050818103600083015261269481612658565b9050919050565b7f54686973206973206e6f7420796f757220636174000000000000000000000000600082015250565b60006126d1601483611ea8565b91506126dc8261269b565b602082019050919050565b60006020820190508181036000830152612700816126c4565b9050919050565b600060408201905061271c60008301856120cd565b6127296020830184611fe4565b9392505050565b7f4552433732313a2063616c6c6572206973206e6f7420746f6b656e206f776e6560008201527f72206e6f7220617070726f766564000000000000000000000000000000000000602082015250565b600061278c602e83611ea8565b915061279782612730565b604082019050919050565b600060208201905081810360008301526127bb8161277f565b9050919050565b7f54686973206361742069732061646f7074656400000000000000000000000000600082015250565b60006127f8601383611ea8565b9150612803826127c2565b602082019050919050565b60006020820190508181036000830152612827816127eb565b9050919050565b600060608201905061284360008301866120cd565b6128506020830185611fe4565b61285d6040830184611fe4565b949350505050565b7f4552433732313a20696e76616c696420746f6b656e2049440000000000000000600082015250565b600061289b601883611ea8565b91506128a682612865565b602082019050919050565b600060208201905081810360008301526128ca8161288e565b9050919050565b7f4552433732313a2061646472657373207a65726f206973206e6f74206120766160008201527f6c6964206f776e65720000000000000000000000000000000000000000000000602082015250565b600061292d602983611ea8565b9150612938826128d1565b604082019050919050565b6000602082019050818103600083015261295c81612920565b9050919050565b7f4e487b7100000000000000000000000000000000000000000000000000000000600052601160045260246000fd5b600061299d82611f4f565b91506129a883611f4f565b92508282019050808211156129c0576129bf612963565b5b92915050565b60006060820190506129db60008301866120cd565b6129e86020830185611fe4565b6129f560408301846120cd565b949350505050565b600081905092915050565b6000612a1382611e9d565b612a1d81856129fd565b9350612a2d818560208601611eb9565b80840191505092915050565b6000612a458285612a08565b9150612a518284612a08565b91508190509392505050565b7f596f7520646f6e2774206f776e20746869732063617400000000000000000000600082015250565b6000612a93601683611ea8565b9150612a9e82612a5d565b602082019050919050565b60006020820190508181036000830152612ac281612a86565b9050919050565b600081905092915050565b50565b6000612ae4600083612ac9565b9150612aef82612ad4565b600082019050919050565b6000612b0582612ad7565b9150819050919050565b7f4661696c656420746f2073656e64204574686572000000000000000000000000600082015250565b6000612b45601483611ea8565b9150612b5082612b0f565b602082019050919050565b60006020820190508181036000830152612b7481612b38565b9050919050565b7f4552433732313a207472616e736665722066726f6d20696e636f72726563742060008201527f6f776e6572000000000000000000000000000000000000000000000000000000602082015250565b6000612bd7602583611ea8565b9150612be282612b7b565b604082019050919050565b60006020820190508181036000830152612c0681612bca565b9050919050565b7f4552433732313a207472616e7366657220746f20746865207a65726f2061646460008201527f7265737300000000000000000000000000000000000000000000000000000000602082015250565b6000612c69602483611ea8565b9150612c7482612c0d565b604082019050919050565b60006020820190508181036000830152612c9881612c5c565b9050919050565b6000612caa82611f4f565b9150612cb583611f4f565b9250828203905081811115612ccd57612ccc612963565b5b92915050565b7f4552433732313a206d696e7420746f20746865207a65726f2061646472657373600082015250565b6000612d09602083611ea8565b9150612d1482612cd3565b602082019050919050565b60006020820190508181036000830152612d3881612cfc565b9050919050565b7f4552433732313a20746f6b656e20616c7265616479206d696e74656400000000600082015250565b6000612d75601c83611ea8565b9150612d8082612d3f565b602082019050919050565b60006020820190508181036000830152612da481612d68565b9050919050565b7f45524337323155524953746f726167653a2055524920736574206f66206e6f6e60008201527f6578697374656e7420746f6b656e000000000000000000000000000000000000602082015250565b6000612e07602e83611ea8565b9150612e1282612dab565b604082019050919050565b60006020820190508181036000830152612e3681612dfa565b9050919050565b60008190508160005260206000209050919050565b60006020601f8301049050919050565b600082821b905092915050565b600060088302612e9f7fffffffffffffffffffffffffffffffffffffffffffffffffffffffffffffffff82612e62565b612ea98683612e62565b95508019841693508086168417925050509392505050565b6000819050919050565b6000612ee6612ee1612edc84611f4f565b612ec1565b611f4f565b9050919050565b6000819050919050565b612f0083612ecb565b612f14612f0c82612eed565b848454612e6f565b825550505050565b600090565b612f29612f1c565b612f34818484612ef7565b505050565b5b81811015612f5857612f4d600082612f21565b600181019050612f3a565b5050565b601f821115612f9d57612f6e81612e3d565b612f7784612e52565b81016020851015612f86578190505b612f9a612f9285612e52565b830182612f39565b50505b505050565b600082821c905092915050565b6000612fc060001984600802612fa2565b1980831691505092915050565b6000612fd98383612faf565b9150826002028217905092915050565b612ff282611e9d565b67ffffffffffffffff81111561300b5761300a61212e565b5b61301582546124b4565b613020828285612f5c565b600060209050601f8311600181146130535760008415613041578287015190505b61304b8582612fcd565b8655506130b3565b601f19841661306186612e3d565b60005b8281101561308957848901518255600182019150602085019450602081019050613064565b868310156130a657848901516130a2601f891682612faf565b8355505b6001600288020188555050505b505050505050565b7f4552433732313a20617070726f766520746f2063616c6c657200000000000000600082015250565b60006130f1601983611ea8565b91506130fc826130bb565b602082019050919050565b60006020820190508181036000830152613120816130e4565b9050919050565b7f4552433732313a207472616e7366657220746f206e6f6e20455243373231526560008201527f63656976657220696d706c656d656e7465720000000000000000000000000000602082015250565b6000613183603283611ea8565b915061318e82613127565b604082019050919050565b600060208201905081810360008301526131b281613176565b9050919050565b600081519050919050565b600082825260208201905092915050565b60006131e0826131b9565b6131ea81856131c4565b93506131fa818560208601611eb9565b61320381611ee3565b840191505092915050565b60006080820190506132236000830187611fe4565b6132306020830186611fe4565b61323d60408301856120cd565b818103606083015261324f81846131d5565b905095945050505050565b60008151905061326981611e0e565b92915050565b60006020828403121561328557613284611dd8565b5b60006132938482850161325a565b91505092915050565b60006132a782611f4f565b91507fffffffffffffffffffffffffffffffffffffffffffffffffffffffffffffffff82036132d9576132d8612963565b5b600182019050919050565b7f4e487b7100000000000000000000000000000000000000000000000000000000600052601260045260246000fd5b600061331e82611f4f565b915061332983611f4f565b925082613339576133386132e4565b5b828204905092915050565b600061334f82611f4f565b915061335a83611f4f565b92508261336a576133696132e4565b5b828206905092915050565b7f4e487b7100000000000000000000000000000000000000000000000000000000600052603260045260246000fdfea2646970667358221220f79255ab87f87802cbe15918800afb3dbdc77cb1ff588bcadbc627e721ac300d64736f6c63430008110033",
  "devdoc": {
    "kind": "dev",
    "methods": {
      "approve(address,uint256)": {
        "details": "See {IERC721-approve}."
      },
      "balanceOf(address)": {
        "details": "See {IERC721-balanceOf}."
      },
      "getApproved(uint256)": {
        "details": "See {IERC721-getApproved}."
      },
      "isApprovedForAll(address,address)": {
        "details": "See {IERC721-isApprovedForAll}."
      },
      "name()": {
        "details": "See {IERC721Metadata-name}."
      },
      "ownerOf(uint256)": {
        "details": "See {IERC721-ownerOf}."
      },
      "safeTransferFrom(address,address,uint256)": {
        "details": "See {IERC721-safeTransferFrom}."
      },
      "safeTransferFrom(address,address,uint256,bytes)": {
        "details": "See {IERC721-safeTransferFrom}."
      },
      "setApprovalForAll(address,bool)": {
        "details": "See {IERC721-setApprovalForAll}."
      },
      "supportsInterface(bytes4)": {
        "details": "See {IERC165-supportsInterface}."
      },
      "symbol()": {
        "details": "See {IERC721Metadata-symbol}."
      },
      "tokenURI(uint256)": {
        "details": "See {IERC721Metadata-tokenURI}."
      },
      "transferFrom(address,address,uint256)": {
        "details": "See {IERC721-transferFrom}."
      }
    },
    "version": 1
  },
  "userdoc": {
    "kind": "user",
    "methods": {},
    "version": 1
  },
  "storageLayout": {
    "storage": [
      {
        "astId": 714,
        "contract": "contracts/CatAdoption.sol:CatAdoption",
        "label": "_name",
        "offset": 0,
        "slot": "0",
        "type": "t_string_storage"
      },
      {
        "astId": 716,
        "contract": "contracts/CatAdoption.sol:CatAdoption",
        "label": "_symbol",
        "offset": 0,
        "slot": "1",
        "type": "t_string_storage"
      },
      {
        "astId": 720,
        "contract": "contracts/CatAdoption.sol:CatAdoption",
        "label": "_owners",
        "offset": 0,
        "slot": "2",
        "type": "t_mapping(t_uint256,t_address)"
      },
      {
        "astId": 724,
        "contract": "contracts/CatAdoption.sol:CatAdoption",
        "label": "_balances",
        "offset": 0,
        "slot": "3",
        "type": "t_mapping(t_address,t_uint256)"
      },
      {
        "astId": 728,
        "contract": "contracts/CatAdoption.sol:CatAdoption",
        "label": "_tokenApprovals",
        "offset": 0,
        "slot": "4",
        "type": "t_mapping(t_uint256,t_address)"
      },
      {
        "astId": 734,
        "contract": "contracts/CatAdoption.sol:CatAdoption",
        "label": "_operatorApprovals",
        "offset": 0,
        "slot": "5",
        "type": "t_mapping(t_address,t_mapping(t_address,t_bool))"
      },
      {
        "astId": 1702,
        "contract": "contracts/CatAdoption.sol:CatAdoption",
        "label": "_tokenURIs",
        "offset": 0,
        "slot": "6",
        "type": "t_mapping(t_uint256,t_string_storage)"
      },
      {
        "astId": 2543,
        "contract": "contracts/CatAdoption.sol:CatAdoption",
        "label": "_tokenIds",
        "offset": 0,
        "slot": "7",
        "type": "t_struct(Counter)2164_storage"
      },
      {
        "astId": 2547,
        "contract": "contracts/CatAdoption.sol:CatAdoption",
        "label": "adopted",
        "offset": 0,
        "slot": "8",
        "type": "t_mapping(t_uint256,t_bool)"
      },
      {
        "astId": 2551,
        "contract": "contracts/CatAdoption.sol:CatAdoption",
        "label": "_accumulatedPets",
        "offset": 0,
        "slot": "9",
        "type": "t_mapping(t_uint256,t_uint256)"
      }
    ],
    "types": {
      "t_address": {
        "encoding": "inplace",
        "label": "address",
        "numberOfBytes": "20"
      },
      "t_bool": {
        "encoding": "inplace",
        "label": "bool",
        "numberOfBytes": "1"
      },
      "t_mapping(t_address,t_bool)": {
        "encoding": "mapping",
        "key": "t_address",
        "label": "mapping(address => bool)",
        "numberOfBytes": "32",
        "value": "t_bool"
      },
      "t_mapping(t_address,t_mapping(t_address,t_bool))": {
        "encoding": "mapping",
        "key": "t_address",
        "label": "mapping(address => mapping(address => bool))",
        "numberOfBytes": "32",
        "value": "t_mapping(t_address,t_bool)"
      },
      "t_mapping(t_address,t_uint256)": {
        "encoding": "mapping",
        "key": "t_address",
        "label": "mapping(address => uint256)",
        "numberOfBytes": "32",
        "value": "t_uint256"
      },
      "t_mapping(t_uint256,t_address)": {
        "encoding": "mapping",
        "key": "t_uint256",
        "label": "mapping(uint256 => address)",
        "numberOfBytes": "32",
        "value": "t_address"
      },
      "t_mapping(t_uint256,t_bool)": {
        "encoding": "mapping",
        "key": "t_uint256",
        "label": "mapping(uint256 => bool)",
        "numberOfBytes": "32",
        "value": "t_bool"
      },
      "t_mapping(t_uint256,t_string_storage)": {
        "encoding": "mapping",
        "key": "t_uint256",
        "label": "mapping(uint256 => string)",
        "numberOfBytes": "32",
        "value": "t_string_storage"
      },
      "t_mapping(t_uint256,t_uint256)": {
        "encoding": "mapping",
        "key": "t_uint256",
        "label": "mapping(uint256 => uint256)",
        "numberOfBytes": "32",
        "value": "t_uint256"
      },
      "t_string_storage": {
        "encoding": "bytes",
        "label": "string",
        "numberOfBytes": "32"
      },
      "t_struct(Counter)2164_storage": {
        "encoding": "inplace",
        "label": "struct Counters.Counter",
        "members": [
          {
            "astId": 2163,
            "contract": "contracts/CatAdoption.sol:CatAdoption",
            "label": "_value",
            "offset": 0,
            "slot": "0",
            "type": "t_uint256"
          }
        ],
        "numberOfBytes": "32"
      },
      "t_uint256": {
        "encoding": "inplace",
        "label": "uint256",
        "numberOfBytes": "32"
      }
    }
  }
}