{
  "address": "0x5FbDB2315678afecb367f032d93F642f64180aa3",
  "abi": [
    {
      "inputs": [],
      "stateMutability": "nonpayable",
      "type": "constructor"
    },
    {
      "anonymous": false,
      "inputs": [
        {
          "indexed": false,
          "internalType": "uint256",
          "name": "catId",
          "type": "uint256"
        },
        {
          "indexed": false,
          "internalType": "address",
          "name": "newOwner",
          "type": "address"
        },
        {
          "indexed": false,
          "internalType": "address",
          "name": "prevOwner",
          "type": "address"
        }
      ],
      "name": "Adoption",
      "type": "event"
    },
    {
      "anonymous": false,
      "inputs": [
        {
          "indexed": false,
          "internalType": "uint256",
          "name": "catId",
          "type": "uint256"
        },
        {
          "indexed": false,
          "internalType": "address",
          "name": "currentOwner",
          "type": "address"
        }
      ],
      "name": "AdoptionOffer",
      "type": "event"
    },
    {
      "anonymous": false,
      "inputs": [
        {
          "indexed": true,
          "internalType": "address",
          "name": "owner",
          "type": "address"
        },
        {
          "indexed": true,
          "internalType": "address",
          "name": "approved",
          "type": "address"
        },
        {
          "indexed": true,
          "internalType": "uint256",
          "name": "tokenId",
          "type": "uint256"
        }
      ],
      "name": "Approval",
      "type": "event"
    },
    {
      "anonymous": false,
      "inputs": [
        {
          "indexed": true,
          "internalType": "address",
          "name": "owner",
          "type": "address"
        },
        {
          "indexed": true,
          "internalType": "address",
          "name": "operator",
          "type": "address"
        },
        {
          "indexed": false,
          "internalType": "bool",
          "name": "approved",
          "type": "bool"
        }
      ],
      "name": "ApprovalForAll",
      "type": "event"
    },
    {
      "anonymous": false,
      "inputs": [
        {
          "indexed": false,
          "internalType": "uint256",
          "name": "catId",
          "type": "uint256"
        },
        {
          "indexed": false,
          "internalType": "address",
          "name": "poster",
          "type": "address"
        }
      ],
      "name": "NewCat",
      "type": "event"
    },
    {
      "anonymous": false,
      "inputs": [
        {
          "indexed": false,
          "internalType": "uint256",
          "name": "catId",
          "type": "uint256"
        },
        {
          "indexed": false,
          "internalType": "address",
          "name": "petter",
          "type": "address"
        },
        {
          "indexed": false,
          "internalType": "uint256",
          "name": "amount",
          "type": "uint256"
        }
      ],
      "name": "Pet",
      "type": "event"
    },
    {
      "anonymous": false,
      "inputs": [
        {
          "indexed": false,
          "internalType": "uint256",
          "name": "catId",
          "type": "uint256"
        },
        {
          "indexed": false,
          "internalType": "address",
          "name": "collecter",
          "type": "address"
        },
        {
          "indexed": false,
          "internalType": "uint256",
          "name": "amount",
          "type": "uint256"
        }
      ],
      "name": "PetCollection",
      "type": "event"
    },
    {
      "anonymous": false,
      "inputs": [
        {
          "indexed": true,
          "internalType": "address",
          "name": "from",
          "type": "address"
        },
        {
          "indexed": true,
          "internalType": "address",
          "name": "to",
          "type": "address"
        },
        {
          "indexed": true,
          "internalType": "uint256",
          "name": "tokenId",
          "type": "uint256"
        }
      ],
      "name": "Transfer",
      "type": "event"
    },
    {
      "inputs": [
        {
          "internalType": "uint256",
          "name": "catId",
          "type": "uint256"
        }
      ],
      "name": "accumulatedPets",
      "outputs": [
        {
          "internalType": "uint256",
          "name": "",
          "type": "uint256"
        }
      ],
      "stateMutability": "view",
      "type": "function"
    },
    {
      "inputs": [
        {
          "internalType": "uint256",
          "name": "catId",
          "type": "uint256"
        }
      ],
      "name": "adoptCat",
      "outputs": [],
      "stateMutability": "nonpayable",
      "type": "function"
    },
    {
      "inputs": [
        {
          "internalType": "address",
          "name": "to",
          "type": "address"
        },
        {
          "internalType": "uint256",
          "name": "tokenId",
          "type": "uint256"
        }
      ],
      "name": "approve",
      "outputs": [],
      "stateMutability": "nonpayable",
      "type": "function"
    },
    {
      "inputs": [
        {
          "internalType": "address",
          "name": "owner",
          "type": "address"
        }
      ],
      "name": "balanceOf",
      "outputs": [
        {
          "internalType": "uint256",
          "name": "",
          "type": "uint256"
        }
      ],
      "stateMutability": "view",
      "type": "function"
    },
    {
      "inputs": [
        {
          "internalType": "uint256",
          "name": "catId",
          "type": "uint256"
        }
      ],
      "name": "collect",
      "outputs": [],
      "stateMutability": "nonpayable",
      "type": "function"
    },
    {
      "inputs": [
        {
          "internalType": "uint256",
          "name": "tokenId",
          "type": "uint256"
        }
      ],
      "name": "getApproved",
      "outputs": [
        {
          "internalType": "address",
          "name": "",
          "type": "address"
        }
      ],
      "stateMutability": "view",
      "type": "function"
    },
    {
      "inputs": [
        {
          "internalType": "uint256",
          "name": "catId",
          "type": "uint256"
        }
      ],
      "name": "giveInAdoption",
      "outputs": [],
      "stateMutability": "nonpayable",
      "type": "function"
    },
    {
      "inputs": [
        {
          "internalType": "uint256",
          "name": "catId",
          "type": "uint256"
        }
      ],
      "name": "isAdopted",
      "outputs": [
        {
          "internalType": "bool",
          "name": "",
          "type": "bool"
        }
      ],
      "stateMutability": "view",
      "type": "function"
    },
    {
      "inputs": [
        {
          "internalType": "address",
          "name": "owner",
          "type": "address"
        },
        {
          "internalType": "address",
          "name": "operator",
          "type": "address"
        }
      ],
      "name": "isApprovedForAll",
      "outputs": [
        {
          "internalType": "bool",
          "name": "",
          "type": "bool"
        }
      ],
      "stateMutability": "view",
      "type": "function"
    },
    {
      "inputs": [],
      "name": "name",
      "outputs": [
        {
          "internalType": "string",
          "name": "",
          "type": "string"
        }
      ],
      "stateMutability": "view",
      "type": "function"
    },
    {
      "inputs": [
        {
          "internalType": "uint256",
          "name": "tokenId",
          "type": "uint256"
        }
      ],
      "name": "ownerOf",
      "outputs": [
        {
          "internalType": "address",
          "name": "",
          "type": "address"
        }
      ],
      "stateMutability": "view",
      "type": "function"
    },
    {
      "inputs": [
        {
          "internalType": "uint256",
          "name": "catId",
          "type": "uint256"
        }
      ],
      "name": "petCat",
      "outputs": [],
      "stateMutability": "payable",
      "type": "function"
    },
    {
      "inputs": [
        {
          "internalType": "string",
          "name": "tokenURI",
          "type": "string"
        },
        {
          "internalType": "bool",
          "name": "forAdoption",
          "type": "bool"
        }
      ],
      "name": "postCat",
      "outputs": [
        {
          "internalType": "uint256",
          "name": "",
          "type": "uint256"
        }
      ],
      "stateMutability": "nonpayable",
      "type": "function"
    },
    {
      "inputs": [
        {
          "internalType": "address",
          "name": "from",
          "type": "address"
        },
        {
          "internalType": "address",
          "name": "to",
          "type": "address"
        },
        {
          "internalType": "uint256",
          "name": "tokenId",
          "type": "uint256"
        }
      ],
      "name": "safeTransferFrom",
      "outputs": [],
      "stateMutability": "nonpayable",
      "type": "function"
    },
    {
      "inputs": [
        {
          "internalType": "address",
          "name": "from",
          "type": "address"
        },
        {
          "internalType": "address",
          "name": "to",
          "type": "address"
        },
        {
          "internalType": "uint256",
          "name": "tokenId",
          "type": "uint256"
        },
        {
          "internalType": "bytes",
          "name": "data",
          "type": "bytes"
        }
      ],
      "name": "safeTransferFrom",
      "outputs": [],
      "stateMutability": "nonpayable",
      "type": "function"
    },
    {
      "inputs": [
        {
          "internalType": "address",
          "name": "operator",
          "type": "address"
        },
        {
          "internalType": "bool",
          "name": "approved",
          "type": "bool"
        }
      ],
      "name": "setApprovalForAll",
      "outputs": [],
      "stateMutability": "nonpayable",
      "type": "function"
    },
    {
      "inputs": [
        {
          "internalType": "bytes4",
          "name": "interfaceId",
          "type": "bytes4"
        }
      ],
      "name": "supportsInterface",
      "outputs": [
        {
          "internalType": "bool",
          "name": "",
          "type": "bool"
        }
      ],
      "stateMutability": "view",
      "type": "function"
    },
    {
      "inputs": [],
      "name": "symbol",
      "outputs": [
        {
          "internalType": "string",
          "name": "",
          "type": "string"
        }
      ],
      "stateMutability": "view",
      "type": "function"
    },
    {
      "inputs": [
        {
          "internalType": "uint256",
          "name": "tokenId",
          "type": "uint256"
        }
      ],
      "name": "tokenURI",
      "outputs": [
        {
          "internalType": "string",
          "name": "",
          "type": "string"
        }
      ],
      "stateMutability": "view",
      "type": "function"
    },
    {
      "inputs": [
        {
          "internalType": "address",
          "name": "from",
          "type": "address"
        },
        {
          "internalType": "address",
          "name": "to",
          "type": "address"
        },
        {
          "internalType": "uint256",
          "name": "tokenId",
          "type": "uint256"
        }
      ],
      "name": "transferFrom",
      "outputs": [],
      "stateMutability": "nonpayable",
      "type": "function"
    }
  ],
  "transactionHash": "0xbed338152e22de92b1bc4072a7019494b514f5ab50ca570ef586c1af46d22fa0",
  "args": [],
  "numDeployments": 1,
  "solcInputHash": "695b93479a27a4a89fdb0e606e703331",
  "bytecode": "0x60806040523480156200001157600080fd5b506040518060400160405280600381526020017f4e465400000000000000000000000000000000000000000000000000000000008152506040518060400160405280600381526020017f49544d000000000000000000000000000000000000000000000000000000000081525081600090816200008f919062000324565b508060019081620000a1919062000324565b5050506200040b565b600081519050919050565b7f4e487b7100000000000000000000000000000000000000000000000000000000600052604160045260246000fd5b7f4e487b7100000000000000000000000000000000000000000000000000000000600052602260045260246000fd5b600060028204905060018216806200012c57607f821691505b602082108103620001425762000141620000e4565b5b50919050565b60008190508160005260206000209050919050565b60006020601f8301049050919050565b600082821b905092915050565b600060088302620001ac7fffffffffffffffffffffffffffffffffffffffffffffffffffffffffffffffff826200016d565b620001b886836200016d565b95508019841693508086168417925050509392505050565b6000819050919050565b6000819050919050565b600062000205620001ff620001f984620001d0565b620001da565b620001d0565b9050919050565b6000819050919050565b6200022183620001e4565b6200023962000230826200020c565b8484546200017a565b825550505050565b600090565b6200025062000241565b6200025d81848462000216565b505050565b5b8181101562000285576200027960008262000246565b60018101905062000263565b5050565b601f821115620002d4576200029e8162000148565b620002a9846200015d565b81016020851015620002b9578190505b620002d1620002c8856200015d565b83018262000262565b50505b505050565b600082821c905092915050565b6000620002f960001984600802620002d9565b1980831691505092915050565b6000620003148383620002e6565b9150826002028217905092915050565b6200032f82620000aa565b67ffffffffffffffff8111156200034b576200034a620000b5565b5b62000357825462000113565b6200036482828562000289565b600060209050601f8311600181146200039c576000841562000387578287015190505b62000393858262000306565b86555062000403565b601f198416620003ac8662000148565b60005b82811015620003d657848901518255600182019150602085019450602081019050620003af565b86831015620003f65784890151620003f2601f891682620002e6565b8355505b6001600288020188555050505b505050505050565b61342c806200041b6000396000f3fe60806040526004361061011f5760003560e01c806370a08231116100a0578063b3d2eeed11610064578063b3d2eeed1461041b578063b88d4fde14610437578063c87b56dd14610460578063ce3f865f1461049d578063e985e9c5146104c65761011f565b806370a08231146103105780637541475f1461034d5780637625ec301461038a57806395d89b41146103c7578063a22cb465146103f25761011f565b806323b872dd116100e757806323b872dd1461021b57806335b7b397146102445780633edd45a31461026d57806342842e0e146102aa5780636352211e146102d35761011f565b806301ffc9a71461012457806306fdde0314610161578063081812fc1461018c578063095ea7b3146101c957806317d93c33146101f2575b600080fd5b34801561013057600080fd5b5061014b60048036038101906101469190611e8c565b610503565b6040516101589190611ed4565b60405180910390f35b34801561016d57600080fd5b506101766105e5565b6040516101839190611f7f565b60405180910390f35b34801561019857600080fd5b506101b360048036038101906101ae9190611fd7565b610677565b6040516101c09190612045565b60405180910390f35b3480156101d557600080fd5b506101f060048036038101906101eb919061208c565b6106bd565b005b3480156101fe57600080fd5b5061021960048036038101906102149190611fd7565b6107d4565b005b34801561022757600080fd5b50610242600480360381019061023d91906120cc565b6108fa565b005b34801561025057600080fd5b5061026b60048036038101906102669190611fd7565b610968565b005b34801561027957600080fd5b50610294600480360381019061028f9190611fd7565b610a36565b6040516102a1919061212e565b60405180910390f35b3480156102b657600080fd5b506102d160048036038101906102cc91906120cc565b610a53565b005b3480156102df57600080fd5b506102fa60048036038101906102f59190611fd7565b610a73565b6040516103079190612045565b60405180910390f35b34801561031c57600080fd5b5061033760048036038101906103329190612149565b610b24565b604051610344919061212e565b60405180910390f35b34801561035957600080fd5b50610374600480360381019061036f9190611fd7565b610bdb565b6040516103819190611ed4565b60405180910390f35b34801561039657600080fd5b506103b160048036038101906103ac91906122d7565b610c05565b6040516103be919061212e565b60405180910390f35b3480156103d357600080fd5b506103dc610ca1565b6040516103e99190611f7f565b60405180910390f35b3480156103fe57600080fd5b5061041960048036038101906104149190612333565b610d33565b005b61043560048036038101906104309190611fd7565b610d49565b005b34801561044357600080fd5b5061045e60048036038101906104599190612414565b610dbd565b005b34801561046c57600080fd5b5061048760048036038101906104829190611fd7565b610e1f565b6040516104949190611f7f565b60405180910390f35b3480156104a957600080fd5b506104c460048036038101906104bf9190611fd7565b610f31565b005b3480156104d257600080fd5b506104ed60048036038101906104e89190612497565b6110c4565b6040516104fa9190611ed4565b60405180910390f35b60007f80ac58cd000000000000000000000000000000000000000000000000000000007bffffffffffffffffffffffffffffffffffffffffffffffffffffffff1916827bffffffffffffffffffffffffffffffffffffffffffffffffffffffff191614806105ce57507f5b5e139f000000000000000000000000000000000000000000000000000000007bffffffffffffffffffffffffffffffffffffffffffffffffffffffff1916827bffffffffffffffffffffffffffffffffffffffffffffffffffffffff1916145b806105de57506105dd82611158565b5b9050919050565b6060600080546105f490612506565b80601f016020809104026020016040519081016040528092919081815260200182805461062090612506565b801561066d5780601f106106425761010080835404028352916020019161066d565b820191906000526020600020905b81548152906001019060200180831161065057829003601f168201915b5050505050905090565b6000610682826111c2565b6004600083815260200190815260200160002060009054906101000a900473ffffffffffffffffffffffffffffffffffffffff169050919050565b60006106c882610a73565b90508073ffffffffffffffffffffffffffffffffffffffff168373ffffffffffffffffffffffffffffffffffffffff1603610738576040517f08c379a000000000000000000000000000000000000000000000000000000000815260040161072f906125a9565b60405180910390fd5b8073ffffffffffffffffffffffffffffffffffffffff1661075761120d565b73ffffffffffffffffffffffffffffffffffffffff16148061078657506107858161078061120d565b6110c4565b5b6107c5576040517f08c379a00000000000000000000000000000000000000000000000000000000081526004016107bc9061263b565b60405180910390fd5b6107cf8383611215565b505050565b6107dd81610bdb565b61081c576040517f08c379a0000000000000000000000000000000000000000000000000000000008152600401610813906126cd565b60405180910390fd5b3373ffffffffffffffffffffffffffffffffffffffff1661083c82610a73565b73ffffffffffffffffffffffffffffffffffffffff1614610892576040517f08c379a000000000000000000000000000000000000000000000000000000000815260040161088990612739565b60405180910390fd5b60006008600083815260200190815260200160002060006101000a81548160ff0219169083151502179055507f6173625805cd416e32d87b254dd60056ec6490c5cad7a1cc6633809a977b208181336040516108ef929190612759565b60405180910390a150565b61090381610bdb565b6109585761091861091261120d565b826112ce565b610957576040517f08c379a000000000000000000000000000000000000000000000000000000000815260040161094e906127f4565b60405180910390fd5b5b610963838383611363565b505050565b61097181610bdb565b156109b1576040517f08c379a00000000000000000000000000000000000000000000000000000000081526004016109a890612860565b60405180910390fd5b7f5f595cae383246bf6b8d438e5a2b3d4e80a0444e3bfc238a1664f16a0bacbdd781336109dd84610a73565b6040516109ec93929190612880565b60405180910390a160016008600083815260200190815260200160002060006101000a81548160ff021916908315150217905550610a33610a2c82610a73565b33836108fa565b50565b600060096000838152602001908152602001600020549050919050565b610a6e83838360405180602001604052806000815250610dbd565b505050565b6000806002600084815260200190815260200160002060009054906101000a900473ffffffffffffffffffffffffffffffffffffffff169050600073ffffffffffffffffffffffffffffffffffffffff168173ffffffffffffffffffffffffffffffffffffffff1603610b1b576040517f08c379a0000000000000000000000000000000000000000000000000000000008152600401610b1290612903565b60405180910390fd5b80915050919050565b60008073ffffffffffffffffffffffffffffffffffffffff168273ffffffffffffffffffffffffffffffffffffffff1603610b94576040517f08c379a0000000000000000000000000000000000000000000000000000000008152600401610b8b90612995565b60405180910390fd5b600360008373ffffffffffffffffffffffffffffffffffffffff1673ffffffffffffffffffffffffffffffffffffffff168152602001908152602001600020549050919050565b60006008600083815260200190815260200160002060009054906101000a900460ff169050919050565b600080610c1260076115c9565b9050610c1e33826115d7565b610c2881856117b0565b610c32600761181d565b82156008600083815260200190815260200160002060006101000a81548160ff0219169083151502179055507fcda5d8b16147b108491c5e90d4db4ecd0216527877a79e7d5b048b7f58b58d878133604051610c8f929190612759565b60405180910390a18091505092915050565b606060018054610cb090612506565b80601f0160208091040260200160405190810160405280929190818152602001828054610cdc90612506565b8015610d295780601f10610cfe57610100808354040283529160200191610d29565b820191906000526020600020905b815481529060010190602001808311610d0c57829003601f168201915b5050505050905090565b610d45610d3e61120d565b8383611833565b5050565b346009600083815260200190815260200160002054610d6891906129e4565b60096000838152602001908152602001600020819055507f440f3abb538646e62a96ce1cda8c9ea3ae4cfd6fad98cd33d1634b29fb92cc8b813334604051610db293929190612a18565b60405180910390a150565b610dce610dc861120d565b836112ce565b610e0d576040517f08c379a0000000000000000000000000000000000000000000000000000000008152600401610e04906127f4565b60405180910390fd5b610e198484848461199f565b50505050565b6060610e2a826111c2565b6000600660008481526020019081526020016000208054610e4a90612506565b80601f0160208091040260200160405190810160405280929190818152602001828054610e7690612506565b8015610ec35780601f10610e9857610100808354040283529160200191610ec3565b820191906000526020600020905b815481529060010190602001808311610ea657829003601f168201915b505050505090506000610ed46119fb565b90506000815103610ee9578192505050610f2c565b600082511115610f1e578082604051602001610f06929190612a8b565b60405160208183030381529060405292505050610f2c565b610f2784611a38565b925050505b919050565b3373ffffffffffffffffffffffffffffffffffffffff16610f5182610a73565b73ffffffffffffffffffffffffffffffffffffffff1614610fa7576040517f08c379a0000000000000000000000000000000000000000000000000000000008152600401610f9e90612afb565b60405180910390fd5b6000600960008381526020019081526020016000205490506000600960008481526020019081526020016000208190555060003373ffffffffffffffffffffffffffffffffffffffff1682604051610ffe90612b4c565b60006040518083038185875af1925050503d806000811461103b576040519150601f19603f3d011682016040523d82523d6000602084013e611040565b606091505b505090507f6879e5c322f159ad637ba254a5c6c773b33a4402df598f7671ded2c433d13ce683338460405161107793929190612a18565b60405180910390a1806110bf576040517f08c379a00000000000000000000000000000000000000000000000000000000081526004016110b690612bad565b60405180910390fd5b505050565b6000600560008473ffffffffffffffffffffffffffffffffffffffff1673ffffffffffffffffffffffffffffffffffffffff16815260200190815260200160002060008373ffffffffffffffffffffffffffffffffffffffff1673ffffffffffffffffffffffffffffffffffffffff16815260200190815260200160002060009054906101000a900460ff16905092915050565b60007f01ffc9a7000000000000000000000000000000000000000000000000000000007bffffffffffffffffffffffffffffffffffffffffffffffffffffffff1916827bffffffffffffffffffffffffffffffffffffffffffffffffffffffff1916149050919050565b6111cb81611aa0565b61120a576040517f08c379a000000000000000000000000000000000000000000000000000000000815260040161120190612903565b60405180910390fd5b50565b600033905090565b816004600083815260200190815260200160002060006101000a81548173ffffffffffffffffffffffffffffffffffffffff021916908373ffffffffffffffffffffffffffffffffffffffff160217905550808273ffffffffffffffffffffffffffffffffffffffff1661128883610a73565b73ffffffffffffffffffffffffffffffffffffffff167f8c5be1e5ebec7d5bd14f71427d1e84f3dd0314c0f7b2291e5b200ac8c7c3b92560405160405180910390a45050565b6000806112da83610a73565b90508073ffffffffffffffffffffffffffffffffffffffff168473ffffffffffffffffffffffffffffffffffffffff16148061131c575061131b81856110c4565b5b8061135a57508373ffffffffffffffffffffffffffffffffffffffff1661134284610677565b73ffffffffffffffffffffffffffffffffffffffff16145b91505092915050565b8273ffffffffffffffffffffffffffffffffffffffff1661138382610a73565b73ffffffffffffffffffffffffffffffffffffffff16146113d9576040517f08c379a00000000000000000000000000000000000000000000000000000000081526004016113d090612c3f565b60405180910390fd5b600073ffffffffffffffffffffffffffffffffffffffff168273ffffffffffffffffffffffffffffffffffffffff1603611448576040517f08c379a000000000000000000000000000000000000000000000000000000000815260040161143f90612cd1565b60405180910390fd5b611453838383611b0c565b61145e600082611215565b6001600360008573ffffffffffffffffffffffffffffffffffffffff1673ffffffffffffffffffffffffffffffffffffffff16815260200190815260200160002060008282546114ae9190612cf1565b925050819055506001600360008473ffffffffffffffffffffffffffffffffffffffff1673ffffffffffffffffffffffffffffffffffffffff168152602001908152602001600020600082825461150591906129e4565b92505081905550816002600083815260200190815260200160002060006101000a81548173ffffffffffffffffffffffffffffffffffffffff021916908373ffffffffffffffffffffffffffffffffffffffff160217905550808273ffffffffffffffffffffffffffffffffffffffff168473ffffffffffffffffffffffffffffffffffffffff167fddf252ad1be2c89b69c2b068fc378daa952ba7f163c4a11628f55a4df523b3ef60405160405180910390a46115c4838383611b11565b505050565b600081600001549050919050565b600073ffffffffffffffffffffffffffffffffffffffff168273ffffffffffffffffffffffffffffffffffffffff1603611646576040517f08c379a000000000000000000000000000000000000000000000000000000000815260040161163d90612d71565b60405180910390fd5b61164f81611aa0565b1561168f576040517f08c379a000000000000000000000000000000000000000000000000000000000815260040161168690612ddd565b60405180910390fd5b61169b60008383611b0c565b6001600360008473ffffffffffffffffffffffffffffffffffffffff1673ffffffffffffffffffffffffffffffffffffffff16815260200190815260200160002060008282546116eb91906129e4565b92505081905550816002600083815260200190815260200160002060006101000a81548173ffffffffffffffffffffffffffffffffffffffff021916908373ffffffffffffffffffffffffffffffffffffffff160217905550808273ffffffffffffffffffffffffffffffffffffffff16600073ffffffffffffffffffffffffffffffffffffffff167fddf252ad1be2c89b69c2b068fc378daa952ba7f163c4a11628f55a4df523b3ef60405160405180910390a46117ac60008383611b11565b5050565b6117b982611aa0565b6117f8576040517f08c379a00000000000000000000000000000000000000000000000000000000081526004016117ef90612e6f565b60405180910390fd5b80600660008481526020019081526020016000209081611818919061303b565b505050565b6001816000016000828254019250508190555050565b8173ffffffffffffffffffffffffffffffffffffffff168373ffffffffffffffffffffffffffffffffffffffff16036118a1576040517f08c379a000000000000000000000000000000000000000000000000000000000815260040161189890613159565b60405180910390fd5b80600560008573ffffffffffffffffffffffffffffffffffffffff1673ffffffffffffffffffffffffffffffffffffffff16815260200190815260200160002060008473ffffffffffffffffffffffffffffffffffffffff1673ffffffffffffffffffffffffffffffffffffffff16815260200190815260200160002060006101000a81548160ff0219169083151502179055508173ffffffffffffffffffffffffffffffffffffffff168373ffffffffffffffffffffffffffffffffffffffff167f17307eab39ab6107e8899845ad3d59bd9653f200f220920489ca2b5937696c31836040516119929190611ed4565b60405180910390a3505050565b6119aa848484611363565b6119b684848484611b16565b6119f5576040517f08c379a00000000000000000000000000000000000000000000000000000000081526004016119ec906131eb565b60405180910390fd5b50505050565b60606040518060400160405280601581526020017f68747470733a2f2f697066732e696f2f697066732f0000000000000000000000815250905090565b6060611a43826111c2565b6000611a4d6119fb565b90506000815111611a6d5760405180602001604052806000815250611a98565b80611a7784611c9d565b604051602001611a88929190612a8b565b6040516020818303038152906040525b915050919050565b60008073ffffffffffffffffffffffffffffffffffffffff166002600084815260200190815260200160002060009054906101000a900473ffffffffffffffffffffffffffffffffffffffff1673ffffffffffffffffffffffffffffffffffffffff1614159050919050565b505050565b505050565b6000611b378473ffffffffffffffffffffffffffffffffffffffff16611dfd565b15611c90578373ffffffffffffffffffffffffffffffffffffffff1663150b7a02611b6061120d565b8786866040518563ffffffff1660e01b8152600401611b829493929190613260565b6020604051808303816000875af1925050508015611bbe57506040513d601f19601f82011682018060405250810190611bbb91906132c1565b60015b611c40573d8060008114611bee576040519150601f19603f3d011682016040523d82523d6000602084013e611bf3565b606091505b506000815103611c38576040517f08c379a0000000000000000000000000000000000000000000000000000000008152600401611c2f906131eb565b60405180910390fd5b805181602001fd5b63150b7a0260e01b7bffffffffffffffffffffffffffffffffffffffffffffffffffffffff1916817bffffffffffffffffffffffffffffffffffffffffffffffffffffffff191614915050611c95565b600190505b949350505050565b606060008203611ce4576040518060400160405280600181526020017f30000000000000000000000000000000000000000000000000000000000000008152509050611df8565b600082905060005b60008214611d16578080611cff906132ee565b915050600a82611d0f9190613365565b9150611cec565b60008167ffffffffffffffff811115611d3257611d31612180565b5b6040519080825280601f01601f191660200182016040528015611d645781602001600182028036833780820191505090505b5090505b60008514611df157600182611d7d9190612cf1565b9150600a85611d8c9190613396565b6030611d9891906129e4565b60f81b818381518110611dae57611dad6133c7565b5b60200101907effffffffffffffffffffffffffffffffffffffffffffffffffffffffffffff1916908160001a905350600a85611dea9190613365565b9450611d68565b8093505050505b919050565b6000808273ffffffffffffffffffffffffffffffffffffffff163b119050919050565b6000604051905090565b600080fd5b600080fd5b60007fffffffff0000000000000000000000000000000000000000000000000000000082169050919050565b611e6981611e34565b8114611e7457600080fd5b50565b600081359050611e8681611e60565b92915050565b600060208284031215611ea257611ea1611e2a565b5b6000611eb084828501611e77565b91505092915050565b60008115159050919050565b611ece81611eb9565b82525050565b6000602082019050611ee96000830184611ec5565b92915050565b600081519050919050565b600082825260208201905092915050565b60005b83811015611f29578082015181840152602081019050611f0e565b60008484015250505050565b6000601f19601f8301169050919050565b6000611f5182611eef565b611f5b8185611efa565b9350611f6b818560208601611f0b565b611f7481611f35565b840191505092915050565b60006020820190508181036000830152611f998184611f46565b905092915050565b6000819050919050565b611fb481611fa1565b8114611fbf57600080fd5b50565b600081359050611fd181611fab565b92915050565b600060208284031215611fed57611fec611e2a565b5b6000611ffb84828501611fc2565b91505092915050565b600073ffffffffffffffffffffffffffffffffffffffff82169050919050565b600061202f82612004565b9050919050565b61203f81612024565b82525050565b600060208201905061205a6000830184612036565b92915050565b61206981612024565b811461207457600080fd5b50565b60008135905061208681612060565b92915050565b600080604083850312156120a3576120a2611e2a565b5b60006120b185828601612077565b92505060206120c285828601611fc2565b9150509250929050565b6000806000606084860312156120e5576120e4611e2a565b5b60006120f386828701612077565b935050602061210486828701612077565b925050604061211586828701611fc2565b9150509250925092565b61212881611fa1565b82525050565b6000602082019050612143600083018461211f565b92915050565b60006020828403121561215f5761215e611e2a565b5b600061216d84828501612077565b91505092915050565b600080fd5b600080fd5b7f4e487b7100000000000000000000000000000000000000000000000000000000600052604160045260246000fd5b6121b882611f35565b810181811067ffffffffffffffff821117156121d7576121d6612180565b5b80604052505050565b60006121ea611e20565b90506121f682826121af565b919050565b600067ffffffffffffffff82111561221657612215612180565b5b61221f82611f35565b9050602081019050919050565b82818337600083830152505050565b600061224e612249846121fb565b6121e0565b90508281526020810184848401111561226a5761226961217b565b5b61227584828561222c565b509392505050565b600082601f83011261229257612291612176565b5b81356122a284826020860161223b565b91505092915050565b6122b481611eb9565b81146122bf57600080fd5b50565b6000813590506122d1816122ab565b92915050565b600080604083850312156122ee576122ed611e2a565b5b600083013567ffffffffffffffff81111561230c5761230b611e2f565b5b6123188582860161227d565b9250506020612329858286016122c2565b9150509250929050565b6000806040838503121561234a57612349611e2a565b5b600061235885828601612077565b9250506020612369858286016122c2565b9150509250929050565b600067ffffffffffffffff82111561238e5761238d612180565b5b61239782611f35565b9050602081019050919050565b60006123b76123b284612373565b6121e0565b9050828152602081018484840111156123d3576123d261217b565b5b6123de84828561222c565b509392505050565b600082601f8301126123fb576123fa612176565b5b813561240b8482602086016123a4565b91505092915050565b6000806000806080858703121561242e5761242d611e2a565b5b600061243c87828801612077565b945050602061244d87828801612077565b935050604061245e87828801611fc2565b925050606085013567ffffffffffffffff81111561247f5761247e611e2f565b5b61248b878288016123e6565b91505092959194509250565b600080604083850312156124ae576124ad611e2a565b5b60006124bc85828601612077565b92505060206124cd85828601612077565b9150509250929050565b7f4e487b7100000000000000000000000000000000000000000000000000000000600052602260045260246000fd5b6000600282049050600182168061251e57607f821691505b602082108103612531576125306124d7565b5b50919050565b7f4552433732313a20617070726f76616c20746f2063757272656e74206f776e6560008201527f7200000000000000000000000000000000000000000000000000000000000000602082015250565b6000612593602183611efa565b915061259e82612537565b604082019050919050565b600060208201905081810360008301526125c281612586565b9050919050565b7f4552433732313a20617070726f76652063616c6c6572206973206e6f7420746f60008201527f6b656e206f776e6572206e6f7220617070726f76656420666f7220616c6c0000602082015250565b6000612625603e83611efa565b9150612630826125c9565b604082019050919050565b6000602082019050818103600083015261265481612618565b9050919050565b7f546869732063617420697320616c7265616479206c697374656420666f72206160008201527f646f7074696f6e00000000000000000000000000000000000000000000000000602082015250565b60006126b7602783611efa565b91506126c28261265b565b604082019050919050565b600060208201905081810360008301526126e6816126aa565b9050919050565b7f54686973206973206e6f7420796f757220636174000000000000000000000000600082015250565b6000612723601483611efa565b915061272e826126ed565b602082019050919050565b6000602082019050818103600083015261275281612716565b9050919050565b600060408201905061276e600083018561211f565b61277b6020830184612036565b9392505050565b7f4552433732313a2063616c6c6572206973206e6f7420746f6b656e206f776e6560008201527f72206e6f7220617070726f766564000000000000000000000000000000000000602082015250565b60006127de602e83611efa565b91506127e982612782565b604082019050919050565b6000602082019050818103600083015261280d816127d1565b9050919050565b7f54686973206361742069732061646f7074656400000000000000000000000000600082015250565b600061284a601383611efa565b915061285582612814565b602082019050919050565b600060208201905081810360008301526128798161283d565b9050919050565b6000606082019050612895600083018661211f565b6128a26020830185612036565b6128af6040830184612036565b949350505050565b7f4552433732313a20696e76616c696420746f6b656e2049440000000000000000600082015250565b60006128ed601883611efa565b91506128f8826128b7565b602082019050919050565b6000602082019050818103600083015261291c816128e0565b9050919050565b7f4552433732313a2061646472657373207a65726f206973206e6f74206120766160008201527f6c6964206f776e65720000000000000000000000000000000000000000000000602082015250565b600061297f602983611efa565b915061298a82612923565b604082019050919050565b600060208201905081810360008301526129ae81612972565b9050919050565b7f4e487b7100000000000000000000000000000000000000000000000000000000600052601160045260246000fd5b60006129ef82611fa1565b91506129fa83611fa1565b9250828201905080821115612a1257612a116129b5565b5b92915050565b6000606082019050612a2d600083018661211f565b612a3a6020830185612036565b612a47604083018461211f565b949350505050565b600081905092915050565b6000612a6582611eef565b612a6f8185612a4f565b9350612a7f818560208601611f0b565b80840191505092915050565b6000612a978285612a5a565b9150612aa38284612a5a565b91508190509392505050565b7f596f7520646f6e2774206f776e20746869732063617400000000000000000000600082015250565b6000612ae5601683611efa565b9150612af082612aaf565b602082019050919050565b60006020820190508181036000830152612b1481612ad8565b9050919050565b600081905092915050565b50565b6000612b36600083612b1b565b9150612b4182612b26565b600082019050919050565b6000612b5782612b29565b9150819050919050565b7f4661696c656420746f2073656e64204574686572000000000000000000000000600082015250565b6000612b97601483611efa565b9150612ba282612b61565b602082019050919050565b60006020820190508181036000830152612bc681612b8a565b9050919050565b7f4552433732313a207472616e736665722066726f6d20696e636f72726563742060008201527f6f776e6572000000000000000000000000000000000000000000000000000000602082015250565b6000612c29602583611efa565b9150612c3482612bcd565b604082019050919050565b60006020820190508181036000830152612c5881612c1c565b9050919050565b7f4552433732313a207472616e7366657220746f20746865207a65726f2061646460008201527f7265737300000000000000000000000000000000000000000000000000000000602082015250565b6000612cbb602483611efa565b9150612cc682612c5f565b604082019050919050565b60006020820190508181036000830152612cea81612cae565b9050919050565b6000612cfc82611fa1565b9150612d0783611fa1565b9250828203905081811115612d1f57612d1e6129b5565b5b92915050565b7f4552433732313a206d696e7420746f20746865207a65726f2061646472657373600082015250565b6000612d5b602083611efa565b9150612d6682612d25565b602082019050919050565b60006020820190508181036000830152612d8a81612d4e565b9050919050565b7f4552433732313a20746f6b656e20616c7265616479206d696e74656400000000600082015250565b6000612dc7601c83611efa565b9150612dd282612d91565b602082019050919050565b60006020820190508181036000830152612df681612dba565b9050919050565b7f45524337323155524953746f726167653a2055524920736574206f66206e6f6e60008201527f6578697374656e7420746f6b656e000000000000000000000000000000000000602082015250565b6000612e59602e83611efa565b9150612e6482612dfd565b604082019050919050565b60006020820190508181036000830152612e8881612e4c565b9050919050565b60008190508160005260206000209050919050565b60006020601f8301049050919050565b600082821b905092915050565b600060088302612ef17fffffffffffffffffffffffffffffffffffffffffffffffffffffffffffffffff82612eb4565b612efb8683612eb4565b95508019841693508086168417925050509392505050565b6000819050919050565b6000612f38612f33612f2e84611fa1565b612f13565b611fa1565b9050919050565b6000819050919050565b612f5283612f1d565b612f66612f5e82612f3f565b848454612ec1565b825550505050565b600090565b612f7b612f6e565b612f86818484612f49565b505050565b5b81811015612faa57612f9f600082612f73565b600181019050612f8c565b5050565b601f821115612fef57612fc081612e8f565b612fc984612ea4565b81016020851015612fd8578190505b612fec612fe485612ea4565b830182612f8b565b50505b505050565b600082821c905092915050565b600061301260001984600802612ff4565b1980831691505092915050565b600061302b8383613001565b9150826002028217905092915050565b61304482611eef565b67ffffffffffffffff81111561305d5761305c612180565b5b6130678254612506565b613072828285612fae565b600060209050601f8311600181146130a55760008415613093578287015190505b61309d858261301f565b865550613105565b601f1984166130b386612e8f565b60005b828110156130db578489015182556001820191506020850194506020810190506130b6565b868310156130f857848901516130f4601f891682613001565b8355505b6001600288020188555050505b505050505050565b7f4552433732313a20617070726f766520746f2063616c6c657200000000000000600082015250565b6000613143601983611efa565b915061314e8261310d565b602082019050919050565b6000602082019050818103600083015261317281613136565b9050919050565b7f4552433732313a207472616e7366657220746f206e6f6e20455243373231526560008201527f63656976657220696d706c656d656e7465720000000000000000000000000000602082015250565b60006131d5603283611efa565b91506131e082613179565b604082019050919050565b60006020820190508181036000830152613204816131c8565b9050919050565b600081519050919050565b600082825260208201905092915050565b60006132328261320b565b61323c8185613216565b935061324c818560208601611f0b565b61325581611f35565b840191505092915050565b60006080820190506132756000830187612036565b6132826020830186612036565b61328f604083018561211f565b81810360608301526132a18184613227565b905095945050505050565b6000815190506132bb81611e60565b92915050565b6000602082840312156132d7576132d6611e2a565b5b60006132e5848285016132ac565b91505092915050565b60006132f982611fa1565b91507fffffffffffffffffffffffffffffffffffffffffffffffffffffffffffffffff820361332b5761332a6129b5565b5b600182019050919050565b7f4e487b7100000000000000000000000000000000000000000000000000000000600052601260045260246000fd5b600061337082611fa1565b915061337b83611fa1565b92508261338b5761338a613336565b5b828204905092915050565b60006133a182611fa1565b91506133ac83611fa1565b9250826133bc576133bb613336565b5b828206905092915050565b7f4e487b7100000000000000000000000000000000000000000000000000000000600052603260045260246000fdfea264697066735822122044bd172b6e5aaacada1565a263c762fe54bb75d7c87408c5acf7ca03051fa2dd64736f6c63430008110033",
  "devdoc": {
    "kind": "dev",
    "methods": {
      "approve(address,uint256)": {
        "details": "See {IERC721-approve}."
      },
      "balanceOf(address)": {
        "details": "See {IERC721-balanceOf}."
      },
      "getApproved(uint256)": {
        "details": "See {IERC721-getApproved}."
      },
      "isApprovedForAll(address,address)": {
        "details": "See {IERC721-isApprovedForAll}."
      },
      "name()": {
        "details": "See {IERC721Metadata-name}."
      },
      "ownerOf(uint256)": {
        "details": "See {IERC721-ownerOf}."
      },
      "safeTransferFrom(address,address,uint256)": {
        "details": "See {IERC721-safeTransferFrom}."
      },
      "safeTransferFrom(address,address,uint256,bytes)": {
        "details": "See {IERC721-safeTransferFrom}."
      },
      "setApprovalForAll(address,bool)": {
        "details": "See {IERC721-setApprovalForAll}."
      },
      "supportsInterface(bytes4)": {
        "details": "See {IERC165-supportsInterface}."
      },
      "symbol()": {
        "details": "See {IERC721Metadata-symbol}."
      },
      "tokenURI(uint256)": {
        "details": "See {IERC721Metadata-tokenURI}."
      },
      "transferFrom(address,address,uint256)": {
        "details": "See {IERC721-transferFrom}."
      }
    },
    "version": 1
  },
  "userdoc": {
    "kind": "user",
    "methods": {},
    "version": 1
  },
  "storageLayout": {
    "storage": [
      {
        "astId": 25,
        "contract": "contracts/CatAdoption.sol:CatAdoption",
        "label": "_name",
        "offset": 0,
        "slot": "0",
        "type": "t_string_storage"
      },
      {
        "astId": 27,
        "contract": "contracts/CatAdoption.sol:CatAdoption",
        "label": "_symbol",
        "offset": 0,
        "slot": "1",
        "type": "t_string_storage"
      },
      {
        "astId": 31,
        "contract": "contracts/CatAdoption.sol:CatAdoption",
        "label": "_owners",
        "offset": 0,
        "slot": "2",
        "type": "t_mapping(t_uint256,t_address)"
      },
      {
        "astId": 35,
        "contract": "contracts/CatAdoption.sol:CatAdoption",
        "label": "_balances",
        "offset": 0,
        "slot": "3",
        "type": "t_mapping(t_address,t_uint256)"
      },
      {
        "astId": 39,
        "contract": "contracts/CatAdoption.sol:CatAdoption",
        "label": "_tokenApprovals",
        "offset": 0,
        "slot": "4",
        "type": "t_mapping(t_uint256,t_address)"
      },
      {
        "astId": 45,
        "contract": "contracts/CatAdoption.sol:CatAdoption",
        "label": "_operatorApprovals",
        "offset": 0,
        "slot": "5",
        "type": "t_mapping(t_address,t_mapping(t_address,t_bool))"
      },
      {
        "astId": 1013,
        "contract": "contracts/CatAdoption.sol:CatAdoption",
        "label": "_tokenURIs",
        "offset": 0,
        "slot": "6",
        "type": "t_mapping(t_uint256,t_string_storage)"
      },
      {
        "astId": 1854,
        "contract": "contracts/CatAdoption.sol:CatAdoption",
        "label": "_tokenIds",
        "offset": 0,
        "slot": "7",
        "type": "t_struct(Counter)1475_storage"
      },
      {
        "astId": 1858,
        "contract": "contracts/CatAdoption.sol:CatAdoption",
        "label": "adopted",
        "offset": 0,
        "slot": "8",
        "type": "t_mapping(t_uint256,t_bool)"
      },
      {
        "astId": 1862,
        "contract": "contracts/CatAdoption.sol:CatAdoption",
        "label": "_accumulatedPets",
        "offset": 0,
        "slot": "9",
        "type": "t_mapping(t_uint256,t_uint256)"
      }
    ],
    "types": {
      "t_address": {
        "encoding": "inplace",
        "label": "address",
        "numberOfBytes": "20"
      },
      "t_bool": {
        "encoding": "inplace",
        "label": "bool",
        "numberOfBytes": "1"
      },
      "t_mapping(t_address,t_bool)": {
        "encoding": "mapping",
        "key": "t_address",
        "label": "mapping(address => bool)",
        "numberOfBytes": "32",
        "value": "t_bool"
      },
      "t_mapping(t_address,t_mapping(t_address,t_bool))": {
        "encoding": "mapping",
        "key": "t_address",
        "label": "mapping(address => mapping(address => bool))",
        "numberOfBytes": "32",
        "value": "t_mapping(t_address,t_bool)"
      },
      "t_mapping(t_address,t_uint256)": {
        "encoding": "mapping",
        "key": "t_address",
        "label": "mapping(address => uint256)",
        "numberOfBytes": "32",
        "value": "t_uint256"
      },
      "t_mapping(t_uint256,t_address)": {
        "encoding": "mapping",
        "key": "t_uint256",
        "label": "mapping(uint256 => address)",
        "numberOfBytes": "32",
        "value": "t_address"
      },
      "t_mapping(t_uint256,t_bool)": {
        "encoding": "mapping",
        "key": "t_uint256",
        "label": "mapping(uint256 => bool)",
        "numberOfBytes": "32",
        "value": "t_bool"
      },
      "t_mapping(t_uint256,t_string_storage)": {
        "encoding": "mapping",
        "key": "t_uint256",
        "label": "mapping(uint256 => string)",
        "numberOfBytes": "32",
        "value": "t_string_storage"
      },
      "t_mapping(t_uint256,t_uint256)": {
        "encoding": "mapping",
        "key": "t_uint256",
        "label": "mapping(uint256 => uint256)",
        "numberOfBytes": "32",
        "value": "t_uint256"
      },
      "t_string_storage": {
        "encoding": "bytes",
        "label": "string",
        "numberOfBytes": "32"
      },
      "t_struct(Counter)1475_storage": {
        "encoding": "inplace",
        "label": "struct Counters.Counter",
        "members": [
          {
            "astId": 1474,
            "contract": "contracts/CatAdoption.sol:CatAdoption",
            "label": "_value",
            "offset": 0,
            "slot": "0",
            "type": "t_uint256"
          }
        ],
        "numberOfBytes": "32"
      },
      "t_uint256": {
        "encoding": "inplace",
        "label": "uint256",
        "numberOfBytes": "32"
      }
    }
  }
}